:020000040000fa
:080000000002040000000000f2
:020000040000fa
:04000800e60200000c
:020000040000fa
:04000c00e602000008
:020000040000fa
:04001000e602000004
:020000040000fa
:04001400e602000000
:020000040000fa
:04001800e6020000fc
:020000040000fa
:04001c00e6020000f8
:020000040000fa
:04002000e6020000f4
:020000040000fa
:04002400e6020000f0
:020000040000fa
:04002800c80200000a
:020000040000fa
:04002c00e6020000e8
:020000040000fa
:04003000e6020000e4
:020000040000fa
:04003400e6020000e0
:020000040000fa
:04003800e6020000dc
:020000040000fa
:04003c00e6020000d8
:020000040000fa
:04004000e6020000d4
:020000040000fa
:04004400e6020000d0
:020000040000fa
:04004800e6020000cc
:020000040000fa
:04004c00e6020000c8
:020000040000fa
:04005000e6020000c4
:020000040000fa
:04005400e6020000c0
:020000040000fa
:04005800e6020000bc
:020000040000fa
:04005c00d8020000c6
:020000040000fa
:04006000e6020000b4
:020000040000fa
:04006400e6020000b0
:020000040000fa
:04006800e6020000ac
:020000040000fa
:04006c00e6020000a8
:020000040000fa
:04007000e6020000a4
:020000040000fa
:04007400e6020000a0
:020000040000fa
:04007800d0020000b2
:020000040000fa
:04007c00e602000098
:020000040000fa
:04008000e602000094
:020000040000fa
:04008400e602000090
:020000040000fa
:04008800e60200008c
:020000040000fa
:04008c00e602000088
:020000040000fa
:04009000e602000084
:020000040000fa
:04009400e602000080
:020000040000fa
:04009800e60200007c
:020000040000fa
:04009c00e602000078
:020000040000fa
:0400a000e602000074
:020000040000fa
:0400a400e602000070
:020000040000fa
:0400a800e60200006c
:020000040000fa
:0400ac00e602000068
:020000040000fa
:0400b000e602000064
:020000040000fa
:0400b400e602000060
:020000040000fa
:0400b800e60200005c
:020000040000fa
:0400bc00e602000058
:020000040000fa
:0400c000e602000054
:020000040000fa
:0400c400e602000050
:020000040000fa
:0400c800e60200004c
:020000040000fa
:0400cc00e602000048
:020000040000fa
:0400d000e602000044
:020000040000fa
:0400d400e602000040
:020000040000fa
:0400d800e60200003c
:020000040000fa
:0400dc00e602000038
:020000040000fa
:0400e000e602000034
:020000040000fa
:0400e400e602000030
:020000040000fa
:0400e800e60200002c
:020000040000fa
:0400ec00e602000028
:020000040000fa
:0400f000e602000024
:020000040000fa
:0400f400e602000020
:020000040000fa
:0400f800e60200001c
:020000040000fa
:0400fc00e602000018
:020000040000fa
:04010000e602000013
:020000040000fa
:04010400e60200000f
:020000040000fa
:04010800e60200000b
:020000040000fa
:04010c00e602000007
:020000040000fa
:04011000e602000003
:020000040000fa
:04011400e6020000ff
:020000040000fa
:04011800e6020000fb
:020000040000fa
:04011c00e6020000f7
:020000040000fa
:04012000e6020000f3
:020000040000fa
:04012400e6020000ef
:020000040000fa
:04012800e6020000eb
:020000040000fa
:04012c00e6020000e7
:020000040000fa
:04013000e6020000e3
:020000040000fa
:04013400e6020000df
:020000040000fa
:04013800e6020000db
:020000040000fa
:04013c00e6020000d7
:020000040000fa
:04014000e6020000d3
:020000040000fa
:04014400e6020000cf
:020000040000fa
:04014800e6020000cb
:020000040000fa
:04014c00e6020000c7
:020000040000fa
:04015000e6020000c3
:020000040000fa
:04015400e6020000bf
:020000040000fa
:04015800e6020000bb
:020000040000fa
:04015c00e6020000b7
:020000040000fa
:04016000e6020000b3
:020000040000fa
:04016400e6020000af
:020000040000fa
:04016800e6020000ab
:020000040000fa
:04016c00e6020000a7
:020000040000fa
:04017000e6020000a3
:020000040000fa
:04017400e60200009f
:020000040000fa
:04017800e60200009b
:020000040000fa
:04017c00e602000097
:020000040000fa
:04018000e002000099
:020000040000fa
:04020800e60200000a
:020000040000fa
:04020c00e602000006
:020000040000fa
:04021000e602000002
:020000040000fa
:04021400e6020000fe
:020000040000fa
:04021800e6020000fa
:020000040000fa
:04021c00e6020000f6
:020000040000fa
:04022000e6020000f2
:020000040000fa
:04022400e6020000ee
:020000040000fa
:04022800e6020000ea
:020000040000fa
:04022c00e6020000e6
:020000040000fa
:04023000e6020000e2
:020000040000fa
:04023400e6020000de
:020000040000fa
:04023800e6020000da
:020000040000fa
:04023c00e6020000d6
:020000040000fa
:04024000e6020000d2
:020000040000fa
:04024400e6020000ce
:020000040000fa
:04024800e6020000ca
:020000040000fa
:04024c00e6020000c6
:020000040000fa
:04025000e6020000c2
:020000040000fa
:04025400e6020000be
:020000040000fa
:04025800e6020000ba
:020000040000fa
:04025c00e6020000b6
:020000040000fa
:04026000e6020000b2
:020000040000fa
:04026400e6020000ae
:020000040000fa
:04026800e6020000aa
:020000040000fa
:04026c00e6020000a6
:020000040000fa
:04027000e6020000a2
:020000040000fa
:04027400e60200009e
:020000040000fa
:04027800e60200009a
:020000040000fa
:04027c00e602000096
:020000040000fa
:04028000e602000092
:020000040000fa
:04028400e60200008e
:020000040000fa
:04028800e60200008a
:020000040000fa
:04028c00e602000086
:020000040000fa
:04029000e602000082
:020000040000fa
:04029400e60200007e
:020000040000fa
:04029800e60200007a
:020000040000fa
:04029c00e602000076
:020000040000fa
:0402a000e602000072
:020000040000fa
:0402a400e60200006e
:020000040000fa
:0402a800e60200006a
:020000040000fa
:0402ac00e602000066
:020000040000fa
:0402b000e602000062
:020000040000fa
:0402b400e60200005e
:020000040000fa
:0402b800e60200005a
:020000040000fa
:0402bc00e602000056
:020000040000fa
:0402c000e602000052
:020000040000fa
:0402c400e60200004e
:020000040000fa
:0402c800e60200004a
:020000040000fa
:0402cc00e602000046
:020000040000fa
:0402d000e602000042
:020000040000fa
:0402d400e60200003e
:020000040000fa
:0402d800e60200003a
:020000040000fa
:0402dc00e602000036
:020000040000fa
:0402e000e602000032
:020000040000fa
:0402e400e60200002e
:020000040000fa
:0402e800e60200002a
:020000040000fa
:0402ec00e602000026
:020000040000fa
:0402f000e602000022
:020000040000fa
:0402f400e60200001e
:020000040000fa
:0402f800e60200001a
:020000040000fa
:0402fc00e602000016
:020000040000fa
:04030000e602000011
:020000040000fa
:04030400e60200000d
:020000040000fa
:04030800e602000009
:020000040000fa
:04030c00e602000005
:020000040000fa
:04031000e602000001
:020000040000fa
:04031400e6020000fd
:020000040000fa
:04031800e6020000f9
:020000040000fa
:04031c00e6020000f5
:020000040000fa
:04032000e6020000f1
:020000040000fa
:04032400e6020000ed
:020000040000fa
:04032800e6020000e9
:020000040000fa
:04032c00e6020000e5
:020000040000fa
:04033000e6020000e1
:020000040000fa
:04033400e6020000dd
:020000040000fa
:04033800e6020000d9
:020000040000fa
:04033c00e6020000d5
:020000040000fa
:04034000e6020000d1
:020000040000fa
:04034400e6020000cd
:020000040000fa
:04034800e6020000c9
:020000040000fa
:04034c00e6020000c5
:020000040000fa
:04035000e6020000c1
:020000040000fa
:04035400e6020000bd
:020000040000fa
:04035800e6020000b9
:020000040000fa
:04035c00e6020000b5
:020000040000fa
:04036000e6020000b1
:020000040000fa
:04036400e6020000ad
:020000040000fa
:04036800e6020000a9
:020000040000fa
:04036c00e6020000a5
:020000040000fa
:04037000e6020000a1
:020000040000fa
:04037400e60200009d
:020000040000fa
:04037800e602000099
:020000040000fa
:04037c00e602000095
:020000040000fa
:04038000e602000091
:020000040000fa
:100400008f8020000e7f22000e0188000000000077
:10041000000020000000e000020032000001200087
:1004200020028800140007006a0007000000e000b6
:1004300003003a00607e2000010020000200370027
:100440000000200001002000810f70000100320038
:1004500014000700000020000000e000020032004d
:100460000000020000000000aa07020000000000d7
:100470000040da000000fe004440a9000000200017
:100480000000e0000300320000002000a00188000e
:100490004440a800000006008a1f78008b1f7800e7
:1004a0000000060091018800800478000000eb0045
:1004b0001a003700e284440032a0b4009905ba0063
:1004c000e284440032a0b4009906ba00e2844400f9
:1004d00032a0b4000006eb00476fde00fd07b2005b
:1004e000636ce10003003a00ebff07000000eb0043
:1004f0000a003700606ce10004003a00005deb0088
:100500008b05e900fdff3e00040037006168e10053
:10051000010032000086eb000b00070019c7ba008b
:100520001905ba000e04e00003003a000a00e000da
:10053000e0ff3a0000000600fe07b2009e018800be
:100540008a047800f5ff3700395dba008b05e900b1
:100550000c003200295dba008b05e900080032006a
:100560000c00e00003003a00e284440032a0b40032
:10057000f5ff370019ddba008b05e900faff3a00f4
:100580008904e800e184440032a0b40000000600c1
:100590000000fa008400a9000080fa000040060074
:1005a0000000fa008680a9000080fa0000400600e2
:1005b0000000fa0085a0a9000080fa0000400600b3
:1005c0000000fa000080fa00004006000040da0057
:1005d0000000fe000000050003f0a200889fbe009e
:1005e0008a9fbe008c1f7800c3000700ca0033003a
:1005f0006450e1004f0032006420e10052003200fc
:1006000003826c0007003b000905d0000306d00000
:10061000820f54000c065d00020039000200320017
:1006200089017800030678008582550004003d00aa
:100630000003fd008103fd008502ea008b85420076
:10064000840f720002003b0060001000e080180080
:100650006011b8000005eb007a28e1000a003900bb
:1006600006007800c75ddd00f707b20087807500df
:100670002d003700828171000a0178006105600059
:100680008180d1000080d3008502e900f9ff3b00a2
:10069000060440008784480002003b006004140008
:1006a000e0841c000988a300070032008a817100e1
:1006b00082817100610164008904d1000884d30043
:1006c0008b05e800170037000978a30013003a00f3
:1006d0000b00e000130034008b05e900080444001f
:1006e00089844c000a4474000978a3000d003a0084
:1006f0000b00e000070034008b05e900080444000b
:1007000089844c0001003a000b0020000978a30006
:10071000f7ff32000001eb00020037008281710018
:100720000a0178004e0007000cf0a70001f0a000bd
:10073000820037006420e10002003a00838f6c00e1
:10074000820033000801be000200be007b003700bb
:10075000889fbe008a9fbe008c1f7800660007003d
:100760006d00330003866c006450e1002e003200ff
:100770006420e100330032006150e1002f003200bc
:100780006120e1003100320085855500eb07b000a3
:100790000900200008042000050037000804440078
:1007a00089844c000a0031000603430087834b0014
:1007b0000001530081815b00f8ff33000203be009b
:1007c0000800a0000804440089844c00f6ff3900aa
:1007d000c639dd00830173000100320013002000e0
:1007e0008904d1000884d3000998a30005003200d1
:1007f0000800a7000300a0008904d1000884d300ea
:100800008b05e8008904d1000884d3000001eb00c7
:100810000281d2001200070001f0a1000cf0a70035
:1008200001f0a000450037006420e10047003200dd
:100830000801be000200be00f7ff37006120e100a2
:10084000420032006000b800f3ff370000002000d3
:1008500001f82700f0ff37006011b8007200370080
:1008600081002000618055000b003d000b0020003e
:1008700061fe2f000100e1001d0034008281710043
:10088000610164008904d1000884d3000000e800fd
:10089000faff3a007100200061006400030070005c
:1008a000020060000900320061044400e0844c0052
:1008b0000988a500050032008b05e8006808e10002
:1008c00002003a008904d1000884d300f20f20000e
:1008d0000258e10005003d00c75ddd00f907b200e8
:1008e0008980750008007800000006000bf82700da
:1008f0008b007800000005000004be0079000700ae
:100900000003be000405be000200be007500070023
:10091000844f7500000006000200be006450e10034
:10092000050036006420e100020036000968a300db
:1009300001003a000800be000160a0004f067800e8
:100940004f05be004f04be0000000600f0ff2f0060
:10095000f1ff2700f9ff3700889fbe008a9fbe0085
:100960008c1f7800e4ff0700ebff330003866c0068
:100970006450e100240032006420e10027003200ce
:100980006150e100220032006120e10021003200cc
:100990008b854200eb07b1000134b800003ab80083
:1009a0000804420089844a00013ab8000030b800c7
:1009b0008880400009014a00040033000000400024
:1009c00081804800020149008b05e900c909dd006a
:1009d000830170000100320013002000c814de0003
:1009e0004814dd004709de001200b200c808de002e
:1009f000088470009aff070001f0a1000cf0a70026
:100a000001f0a000cdff37006120e100cfff3200f0
:100a10000801be000200be00f7ff37006150e10090
:100a2000fcff3a00c9ff3700889fbe008a9fbe00c6
:100a300000827000040271000482710026003200fe
:100a40000004be000200be006011b8006b09200067
:100a5000950220000182cf000a0039000541b10053
:100a60000082cf00070039000541b1000982cf00a4
:100a7000040039000541b1000882cf0001003900af
:100a80000541b10005425200120032000a003b004d
:100a900082817100610164008100d1000080d30077
:100aa0008984d3000884d3008b05e8000442e80061
:100ab000f7ff3a00070037000804440089844c001f
:100ac00000004800818048008b05e9000442e900ed
:100ad000f9ff3a0062ff07004f05be004f04be0059
:100ae00000000600c70ade00f107b200f50fb200f1
:100af00008003200e1cf4200020032000170a00085
:100b000024000500810f7000010032000408050078
:100b100044000500810f700002003a001400050037
:100b20008502e9000000400081c04800fcff3b0056
:080b30000170a0002400050083
:020000040000fa
:100b38000000fa00113a80000004200000816000e3
:100b4800600420007105200023742000804978008b
:100b5800814978008249780001348000f00f2e0026
:100b68008080600000d02000010070000034880000
:100b78004135800000fe2f00008060005001b30066
:100b8800403588006135800000fe2f00008060003d
:100b98006001b30060358800a136800000fe2f0098
:100ba800008060007000b300a03688009136800095
:100bb800f00f2e000080600000b0a0009036880082
:100bc800c136800000fe2f0000806000a000b30046
:100bd800c0368800c1368000f00f2e00808060008b
:100be80000b0200001007000c0368800103a800074
:100bf800000178000260a000600420007105200058
:100c0800237420008049780081497800824978005f
:100c180081e0a8000080fa00000006000000fa0049
:100c280071e7a80071c7a80071a7a8007187a8007c
:100c38007167a80070e7a8007427a80070c7a8000b
:100c480070a7a8007087a8007067a8007007a800a0
:100c58007387a8007367a8007347a8007327a800c4
:100c68007307a8007287a8007267a8007247a800d7
:100c78007227a8007207a8007547a8007527a80062
:100c88007507a80074e7a80076c7a8007667a800cb
:100c98007647a8007627a8007607a8000080fa0003
:100ca800000006000000fa00c222a900c022a90024
:100cb8007007a90021e3a900c9c2a800c9e2a800d9
:100cc800c842a800d002a800d022a800d042a8009c
:100cd8002d43a9002d23a9002c83a9002cc3a9000a
:100ce8002ce3a9002d03a90001198000f0cf2f00e3
:100cf800008060000019880001198000000e2000a3
:100d080001007000001988002043a9001119800013
:100d1800f0ff21000080600000d0a00010198800ba
:100d28002223a9002203a90025e3a9002119800094
:100d3800f00f2e00008060000080a00020198800bd
:100d48002463ef0028e3a900c222a80021e3a80039
:100d5800007d2000010020008c0007000080fa00c0
:100d6800000006000200fa00004f78009e4078005c
:100d78007fc060000080fb007f0060004219800097
:100d880001fe2f00810061000100700040198800f9
:100d98002023a80040002000010020007b0007005d
:100da8000000000000198000610060000000e00001
:100db800fcff3200001880008000eb00a4fe070052
:100dc800f226210033b02300e1fe07000080fa007c
:100dd800000006000000fa00c262a900c062a90073
:100de800c662a9000080fa00000006000000fa00b0
:100df800c262a8000080fa00000006000000fa00a5
:100e0800c262a9000080fa00000006000000fa0093
:100e18000080fa00000006000000fa00cae2a900fb
:100e2800cba2a900c8e2a800c9a2a8008200a90014
:100e38008220a9008400a9008680a9009400a80047
:100e48009680a8000080fa00000006000000fa0062
:100e58007087a90061e2a900d0c2a800d102a90048
:100e6800d122a900d0e2a900d6c2a900d702a900c0
:100e7800d722a900d6e2a9007087a8000080fa004e
:100e8800000006000000fa000080fa0000000600da
:100e98000200fa00004f78001e407800b1ff0700fa
:100ea800323323003303240027fe0700020020000a
:100eb800a32f2400a6fe07000200200083142400ac
:100ec800c3fd07000080fa00000006000200fa00d7
:100ed800004f78001e407800a2ff0700323323003d
:100ee8003303240018fe070002002e00433c2400b0
:100ef80097fe070002002c00032b2400b4fd070016
:100f08000080fa00000006000000fa000080fa00e5
:100f1800000006000000fa00caa2a900c8a2a800a2
:100f28007607a9009404a9000080fa0000000600d2
:100f38000000fa00fefe070038ff0700b6ff0700b2
:100f480058ff07000080fa00000006000000fa00c1
:100f5800f7ff0700c862a900ce62a90070c0b300fd
:100f6800cbff0700004088001140880080c0b30014
:100f7800d6ff0700204088003140880000a82100e3
:0c0f88006100200001000700f4ff3700aa
:020000040000fa
:100f9400f03fb1000180b10006003500ee03090006
:100fa40000000000403fb1000180b100fbff3d00a4
:100fb4001000b000203fb00002003500008009009e
:080fc40000000000000006001f
:020000040000fa
:100fcc000008000008000000000000000000000005
:020000040000fa
:020000040001f9
:0457f0009aff00001c
:020000040000fa
:020000040001f9
:0457f400fff40000be
:020000040000fa
:020000040001f9
:0457f8000ff70000a7
:020000040000fa
:020000040001f9
:0457fc007f3f0000eb
:00000001FF
