:020000040000fa
:080000000002040000000000f2
:020000040000fa
:04000800fa020000f8
:020000040000fa
:04000c00fa020000f4
:020000040000fa
:04001000fa020000f0
:020000040000fa
:04001400fa020000ec
:020000040000fa
:04001800fa020000e8
:020000040000fa
:04001c00fa020000e4
:020000040000fa
:04002000fa020000e0
:020000040000fa
:04002400fa020000dc
:020000040000fa
:04002800c80200000a
:020000040000fa
:04002c00fa020000d4
:020000040000fa
:04003000fa020000d0
:020000040000fa
:04003400fa020000cc
:020000040000fa
:04003800fa020000c8
:020000040000fa
:04003c00fa020000c4
:020000040000fa
:04004000fa020000c0
:020000040000fa
:04004400fa020000bc
:020000040000fa
:04004800fa020000b8
:020000040000fa
:04004c00fa020000b4
:020000040000fa
:04005000fa020000b0
:020000040000fa
:04005400fa020000ac
:020000040000fa
:04005800fa020000a8
:020000040000fa
:04005c00fa020000a4
:020000040000fa
:04006000fa020000a0
:020000040000fa
:04006400fa0200009c
:020000040000fa
:04006800fa02000098
:020000040000fa
:04006c00fa02000094
:020000040000fa
:04007000fa02000090
:020000040000fa
:04007400fa0200008c
:020000040000fa
:04007800d0020000b2
:020000040000fa
:04007c00fa02000084
:020000040000fa
:04008000fa02000080
:020000040000fa
:04008400fa0200007c
:020000040000fa
:04008800fa02000078
:020000040000fa
:04008c00fa02000074
:020000040000fa
:04009000fa02000070
:020000040000fa
:04009400fa0200006c
:020000040000fa
:04009800fa02000068
:020000040000fa
:04009c00fa02000064
:020000040000fa
:0400a000fa02000060
:020000040000fa
:0400a400fa0200005c
:020000040000fa
:0400a800fa02000058
:020000040000fa
:0400ac00fa02000054
:020000040000fa
:0400b000fa02000050
:020000040000fa
:0400b400fa0200004c
:020000040000fa
:0400b800fa02000048
:020000040000fa
:0400bc00fa02000044
:020000040000fa
:0400c000fa02000040
:020000040000fa
:0400c400fa0200003c
:020000040000fa
:0400c800fa02000038
:020000040000fa
:0400cc00fa02000034
:020000040000fa
:0400d000fa02000030
:020000040000fa
:0400d400fa0200002c
:020000040000fa
:0400d800fa02000028
:020000040000fa
:0400dc00fa02000024
:020000040000fa
:0400e000fa02000020
:020000040000fa
:0400e400fa0200001c
:020000040000fa
:0400e800fa02000018
:020000040000fa
:0400ec00fa02000014
:020000040000fa
:0400f000fa02000010
:020000040000fa
:0400f400fa0200000c
:020000040000fa
:0400f800fa02000008
:020000040000fa
:0400fc00fa02000004
:020000040000fa
:04010000fa020000ff
:020000040000fa
:04010400fa020000fb
:020000040000fa
:04010800fa020000f7
:020000040000fa
:04010c00fa020000f3
:020000040000fa
:04011000fa020000ef
:020000040000fa
:04011400fa020000eb
:020000040000fa
:04011800fa020000e7
:020000040000fa
:04011c00fa020000e3
:020000040000fa
:04012000f2020000e7
:020000040000fa
:04012400fa020000db
:020000040000fa
:04012800fa020000d7
:020000040000fa
:04012c00fa020000d3
:020000040000fa
:04013000fa020000cf
:020000040000fa
:04013400fa020000cb
:020000040000fa
:04013800fa020000c7
:020000040000fa
:04013c00fa020000c3
:020000040000fa
:04014000fa020000bf
:020000040000fa
:04014400fa020000bb
:020000040000fa
:04014800fa020000b7
:020000040000fa
:04014c00fa020000b3
:020000040000fa
:04015000fa020000af
:020000040000fa
:04015400fa020000ab
:020000040000fa
:04015800fa020000a7
:020000040000fa
:04015c00fa020000a3
:020000040000fa
:04016000fa0200009f
:020000040000fa
:04016400fa0200009b
:020000040000fa
:04016800fa02000097
:020000040000fa
:04016c00fa02000093
:020000040000fa
:04017000fa0200008f
:020000040000fa
:04017400fa0200008b
:020000040000fa
:04017800fa02000087
:020000040000fa
:04017c00fa02000083
:020000040000fa
:04018000fa0200007f
:020000040000fa
:04020800fa020000f6
:020000040000fa
:04020c00fa020000f2
:020000040000fa
:04021000fa020000ee
:020000040000fa
:04021400fa020000ea
:020000040000fa
:04021800fa020000e6
:020000040000fa
:04021c00fa020000e2
:020000040000fa
:04022000fa020000de
:020000040000fa
:04022400fa020000da
:020000040000fa
:04022800c802000008
:020000040000fa
:04022c00fa020000d2
:020000040000fa
:04023000fa020000ce
:020000040000fa
:04023400fa020000ca
:020000040000fa
:04023800fa020000c6
:020000040000fa
:04023c00fa020000c2
:020000040000fa
:04024000fa020000be
:020000040000fa
:04024400fa020000ba
:020000040000fa
:04024800fa020000b6
:020000040000fa
:04024c00fa020000b2
:020000040000fa
:04025000fa020000ae
:020000040000fa
:04025400fa020000aa
:020000040000fa
:04025800fa020000a6
:020000040000fa
:04025c00fa020000a2
:020000040000fa
:04026000fa0200009e
:020000040000fa
:04026400fa0200009a
:020000040000fa
:04026800fa02000096
:020000040000fa
:04026c00fa02000092
:020000040000fa
:04027000fa0200008e
:020000040000fa
:04027400fa0200008a
:020000040000fa
:04027800d0020000b0
:020000040000fa
:04027c00fa02000082
:020000040000fa
:04028000fa0200007e
:020000040000fa
:04028400fa0200007a
:020000040000fa
:04028800fa02000076
:020000040000fa
:04028c00fa02000072
:020000040000fa
:04029000fa0200006e
:020000040000fa
:04029400fa0200006a
:020000040000fa
:04029800fa02000066
:020000040000fa
:04029c00fa02000062
:020000040000fa
:0402a000fa0200005e
:020000040000fa
:0402a400fa0200005a
:020000040000fa
:0402a800fa02000056
:020000040000fa
:0402ac00fa02000052
:020000040000fa
:0402b000fa0200004e
:020000040000fa
:0402b400fa0200004a
:020000040000fa
:0402b800fa02000046
:020000040000fa
:0402bc00fa02000042
:020000040000fa
:0402c000fa0200003e
:020000040000fa
:0402c400fa0200003a
:020000040000fa
:0402c800fa02000036
:020000040000fa
:0402cc00fa02000032
:020000040000fa
:0402d000fa0200002e
:020000040000fa
:0402d400fa0200002a
:020000040000fa
:0402d800fa02000026
:020000040000fa
:0402dc00fa02000022
:020000040000fa
:0402e000fa0200001e
:020000040000fa
:0402e400fa0200001a
:020000040000fa
:0402e800fa02000016
:020000040000fa
:0402ec00fa02000012
:020000040000fa
:0402f000fa0200000e
:020000040000fa
:0402f400fa0200000a
:020000040000fa
:0402f800fa02000006
:020000040000fa
:0402fc00fa02000002
:020000040000fa
:04030000fa020000fd
:020000040000fa
:04030400fa020000f9
:020000040000fa
:04030800fa020000f5
:020000040000fa
:04030c00fa020000f1
:020000040000fa
:04031000fa020000ed
:020000040000fa
:04031400fa020000e9
:020000040000fa
:04031800fa020000e5
:020000040000fa
:04031c00fa020000e1
:020000040000fa
:04032000f2020000e5
:020000040000fa
:04032400fa020000d9
:020000040000fa
:04032800fa020000d5
:020000040000fa
:04032c00fa020000d1
:020000040000fa
:04033000fa020000cd
:020000040000fa
:04033400fa020000c9
:020000040000fa
:04033800fa020000c5
:020000040000fa
:04033c00fa020000c1
:020000040000fa
:04034000fa020000bd
:020000040000fa
:04034400fa020000b9
:020000040000fa
:04034800fa020000b5
:020000040000fa
:04034c00fa020000b1
:020000040000fa
:04035000fa020000ad
:020000040000fa
:04035400fa020000a9
:020000040000fa
:04035800fa020000a5
:020000040000fa
:04035c00fa020000a1
:020000040000fa
:04036000fa0200009d
:020000040000fa
:04036400fa02000099
:020000040000fa
:04036800fa02000095
:020000040000fa
:04036c00fa02000091
:020000040000fa
:04037000fa0200008d
:020000040000fa
:04037400fa02000089
:020000040000fa
:04037800fa02000085
:020000040000fa
:04037c00fa02000081
:020000040000fa
:04038000fa0200007d
:020000040000fa
:100400000f8220000e7f22000e01880000000000f5
:10041000000020000000e000020032000001200087
:100420002002880014000700740007000000e000ac
:1004300003003a00c0d02000010020000200370075
:100440000000200001002000810f70000100320038
:1004500014000700000020000000e000020032004d
:100460000000020000000000e00c0200000000009c
:100470000040da000000fe004440a9000000200017
:100480000000e0000300320000002000a00188000e
:100490004440a800000006008a1f78008b1f7800e7
:1004a0000000060091018800800478000000eb0045
:1004b0001a003700e284440032a0b4009905ba0063
:1004c000e284440032a0b4009906ba00e2844400f9
:1004d00032a0b4000006eb00476fde00fd07b2005b
:1004e000636ce10003003a00ebff07000000eb0043
:1004f0000a003700606ce10004003a00005deb0088
:100500008b05e900fdff3e00040037006168e10053
:10051000010032000086eb000b00070019c7ba008b
:100520001905ba000e04e00003003a000a00e000da
:10053000e0ff3a0000000600fe07b2009e018800be
:100540008a047800f5ff3700395dba008b05e900b1
:100550000c003200295dba008b05e900080032006a
:100560000c00e00003003a00e284440032a0b40032
:10057000f5ff370019ddba008b05e900faff3a00f4
:100580008904e800e184440032a0b40000000600c1
:100590000000fa008400a9000080fa000040060074
:1005a000801f78000000fa008680a90000c8bf0004
:1005b000e14f50000500320010c0b30000e8b70062
:1005c000c262a8009bc0a900030037000068ef00ca
:1005d000c262a9009bc0a8000080fa004f0078000a
:1005e000004006000000fa008bc0a9000080fa005d
:1005f000004006000040da000000fe000000050098
:1006000003f0a200889fbe008a9fbe008c1f780066
:10061000c3000700ca0033006450e1004f003200fd
:100620006420e1005200320003826c0007003b00ae
:100630000905d0000306d000820f54000c065d00af
:1006400002003900020032008901780003067800b8
:100650008582550004003d000003fd008103fd007c
:100660008502ea008b854200840f720002003b0085
:1006700060001000e08018006011b8000005eb0079
:100680007a28e1000a00390006007800c75ddd0025
:10069000f707b200878075002d0037008281710056
:1006a0000a017800610560008180d1000080d300dc
:1006b0008502e900f9ff3b000604400087844800fa
:1006c00002003b0060041400e0841c000988a300c1
:1006d000070032008a81710082817100610164002b
:1006e0008904d1000884d3008b05e8001700370087
:1006f0000978a30013003a000b00e0001300340057
:100700008b05e9000804440089844c000a44740005
:100710000978a3000d003a000b00e0000700340048
:100720008b05e9000804440089844c0001003a006c
:100730000b0020000978a300f7ff32000001eb0056
:1007400002003700828171000a0178004e00070024
:100750000cf0a70001f0a000820037006420e10047
:1007600002003a00838f6c00820033000801be0053
:100770000200be007b003700889fbe008a9fbe003b
:100780008c1f7800660007006d00330003866c0044
:100790006450e1002e0032006420e100330032009a
:1007a0006150e1002f0032006120e1003100320091
:1007b00085855500eb07b0000900200008042000e3
:1007c000050037000804440089844c000a00310009
:1007d0000603430087834b000001530081815b00c7
:1007e000f8ff33000203be000800a0000804440024
:1007f00089844c00f6ff3900c639dd00830173009f
:1008000001003200130020008904d1000884d300c5
:100810000998a300050032000800a7000300a0000b
:100820008904d1000884d3008b05e8008904d10035
:100830000884d3000001eb000281d20012000700ff
:1008400001f0a1000cf0a70001f0a0004500370066
:100850006420e100470032000801be000200be0033
:10086000f7ff37006120e100420032006000b8006d
:10087000f3ff37000000200001f82700f0ff3700e9
:100880006011b800720037008100200061805500bf
:100890000b003d000b00200061fe2f000100e10075
:1008a0001d00340082817100610164008904d1005f
:1008b0000884d3000000e800faff3a00710020002d
:1008c0006100640003007000020060000900320053
:1008d00061044400e0844c000988a5000500320052
:1008e0008b05e8006808e10002003a008904d100a5
:1008f0000884d300f20f20000258e10005003d00fb
:10090000c75ddd00f907b200898075000800780036
:10091000000006000bf827008b007800000005009f
:100920000004be00790007000003be000405be00fd
:100930000200be0075000700844f7500000006002d
:100940000200be006450e100050036006420e100b2
:10095000020036000968a30001003a000800be004a
:100960000160a0004f0678004f05be004f04be0096
:1009700000000600f0ff2f00f1ff2700f9ff37000d
:10098000889fbe008a9fbe008c1f7800e4ff07008e
:10099000ebff330003866c006450e100240032005a
:1009a0006420e100270032006150e10022003200a3
:1009b0006120e100210032008b854200eb07b1008d
:1009c0000134b800003ab8000804420089844a00a3
:1009d000013ab8000030b8008880400009014a00a0
:1009e00004003300000040008180480002014900fb
:1009f0008b05e900c909dd008301700001003200a8
:100a000013002000c814de004814dd004709de0092
:100a10001200b200c808de00088470009aff0700c8
:100a200001f0a1000cf0a70001f0a000cdff3700fd
:100a30006120e100cfff32000801be000200be00cd
:100a4000f7ff37006150e100fcff3a00c9ff3700b3
:100a5000889fbe008a9fbe00008270000402710061
:100a600004827100260032000004be000200be00b5
:100a70006011b8006b092000950220000182cf00b0
:100a80000a0039000541b1000082cf00070039009b
:100a90000541b1000982cf00040039000541b100d1
:100aa0000882cf00010039000541b1000542520023
:100ab000120032000a003b00828171006101640073
:100ac0008100d1000080d3008984d3000884d30042
:100ad0008b05e8000442e800f7ff3a000700370002
:100ae0000804440089844c000000480081804800cc
:100af0008b05e9000442e900f9ff3a0062ff0700b4
:100b00004f05be004f04be0000000600c70ade000d
:100b1000f107b200f50fb20008003200e1cf420049
:100b2000020032000170a00024000500810f700057
:100b3000010032000408050044000500810f700028
:100b400002003a00140005008502e90000004000a0
:100b500081c04800fcff3b000170a000240005009c
:020000040000fa
:100b60000000fa0081e0a8000080fa000000060002
:100b70000000fa0071e7a80071c7a80071a7a800db
:100b80007187a8007167a80070e7a8007427a80003
:100b900070c7a80070a7a8007087a8007067a80099
:100ba0007007a8007387a8007367a8007347a800a0
:100bb0007327a8007307a8007287a8007267a800af
:100bc0007247a8007227a8007207a8007547a800fe
:100bd0007527a9007507a80074e7a80076c7a800c4
:100be0007667a8007647a8007627a8007607a800b1
:100bf0000080fa00000006000000fa0070e7a9007b
:100c000007e2a800700220002010880009e2a80076
:100c10000080fa00000006000200fa00004f780091
:100c20001e80fb00101088000000000040108000b3
:100c3000610060000000e000fcff3a0000000000de
:100c40004110800000002400008060000000e000ef
:100c5000fbff3a000080fa00000006000200fa00e4
:100c6000004f78000662a8000000000040108000dd
:100c7000620060000000e000fcff32009e4078004f
:100c800061c060000080fb00610060004500dd0085
:100c9000311080000150a100010070003010880068
:100ca0000682a80000000000301080007000600084
:100cb0000000e000fcff3a000010800000407800d7
:100cc0000080fa00000006000000fa000602a800fa
:100cd0000000000030108000610060000000e000b3
:100ce000fcff3a000080fa00000006000000fa0055
:100cf0000642a80000000000301080006400600080
:100d00000000e000fcff3a000080fa00000006004e
:100d10000000fa000622a800000000003010800049
:100d2000620060000000e000fcff3a000080fa0072
:100d3000000006000000fa007067a90041e2a90067
:100d4000113a8000f00b2000008160006004200058
:100d500071052000237420008049780081497800c3
:100d6000824978004135800000fe2f00008060003d
:100d70005001b30040358800a136800000fe2f00ee
:100d8000008060007000b300a036880091368000bb
:100d9000f00f2e000080600000b0a00090368800a8
:100da000103a8000000178000260a000600420007a
:100db0007105200023742000804978008149780063
:100dc00082497800d0a2a800d082a900d062a900f0
:100dd000d6a2a900d682a900d662a9002d83a800b8
:100de00042a2a8004342a90042c2a9004322a9008e
:100df0004302a80040c2a9004422ef001012800064
:100e0000c001b30010128800101280003000b3003f
:100e10001012880041e2a8000080fa0000000600dd
:100e20000000fa007087a90061e2a900113a800071
:100e3000f00b20000081600060042000710520009c
:100e40002374200080497800814978008249780025
:100e50006135800000fe2f00008060006001b3005b
:100e600060358800c136800000fe2f0000806000e1
:100e7000a000b300c0368800c1368000f00f2e00fd
:100e80008080600000b0200001007000c036880043
:100e9000103a8000000178000260a0006004200089
:100ea0007105200023742000804978008149780072
:100eb00082497800d0c2a800d102a900d122a9009d
:100ec000d0e2a900d6c2a900d702a900d722a90062
:100ed000d6e2a90061e2a8000080fa000000060046
:100ee0000200fa00004f78001e80fb0040128800cc
:100ef0000000000000128000620060000000e000be
:100f0000fcff3a0040128000004f78000080fa0099
:100f1000000006000000fa00f00f200040128800d8
:100f20000000000000128000610060000000e0008e
:100f3000fcff320040128000004078000080fa0080
:100f4000000006000000fa00c222a900c022a90089
:100f50007007a90021e3a900c9c2a800c9e2a8003e
:100f6000c842a800d002a800d022a800d042a80001
:100f70002d43a9002d23a9002c83a9002cc3a9006f
:100f80002ce3a9002d03a90001198000f0cf2f0048
:100f9000008060000019880001198000000e200008
:100fa00001007000001988002043a9001119800079
:100fb000f0ff21000080600000d0a0001019880020
:100fc0002223a9002203a90025e3a90021198000fa
:100fd000f00f2e00008060000080a0002019880023
:100fe0002463ef0028e3a900c222a80021e3a8009f
:100ff000007d200001002000790207000080fa0037
:10100000000006000200fa00004f78009e407800c1
:101010007fc060000080fb007f00600042198000fc
:1010200001fe2f008100610001007000401988005e
:101030002023a800400020000100200068020700d3
:101040000000000000198000610060000000e00066
:10105000fcff3200001880008000eb0008fe070053
:10106000f226210033b0230045fe07000080fa007d
:10107000000006000000fa00c222a80000fa2000ca
:1010800001002000560207000080fa000000060060
:101090000000fa00c222a9000080fa000000060049
:1010a0000000fa001100070027e6a90011318000b6
:1010b000f03f2c000080600000b0a00010318800dc
:1010c00023e6a80023c6a80027e6a8008bc0a90035
:1010d00011068000007020000100700010068800da
:1010e0009bc0a8000080fa00000006000000fa0083
:1010f000811f7800821f7800831f78000500fc00a4
:10110000617620005205200082087800a30a2000a2
:101110008308780027a6a800cf0078004f01780048
:10112000cf0178000080fa00000006000000fa00fd
:10113000cae2a900cba2a900c8e2a800c9a2a800df
:101140002d63a800113a8000f00b200000816000a0
:10115000600420007105200023742000804978007d
:10116000814978008249780001348000f00f2e0018
:101170008080600000d020000100700000348800f2
:10118000103a8000000178000260a0006004200096
:10119000710520002374200080497800814978007f
:1011a000824978008200a9008220a9008400a90059
:1011b0008680a900200580007000b300200588000b
:1011c000700580007000b300700588009400a800ce
:1011d0009680a8000080fa00000006000200fa00d5
:1011e000004f780011479800b7fe0700e0cdb3002c
:1011f00089fe07001e40780087fe07001e40900011
:1012000085fe0700b9fe07000080fa000000060016
:101210000400fa0020479800abfe0700e0cdb300c1
:101220007dfe07002e4090007bfe0700a6fe070013
:10123000f0cdb30078fe070010c0b30087fe0700b2
:10124000004f7800a9fe07001e4078000080fa00d9
:10125000000006000400fa00204798002e4090008d
:10126000ebff0700004f78002e4090000080fb004d
:10127000e20f500012003200e20f500005003c0067
:101280000000e0000a003200e10f50000a003200c6
:1012900015003700e50f50000f003200e60f500038
:1012a00010003200e40f5000080032000e0037003a
:1012b0001e74a1000c0037001e74a1000a00370044
:1012c000f1c3b3001ecf600007003700f1c3b300c5
:1012d0001ecf6000040037009e4078007fcf600082
:1012e00001003700000000001e4078000080fa0076
:1012f000000006000000fa008040eb000040eb0018
:10130000b6ff070051c0b30010c0b300b3ff070021
:1013100091c0b30020c0b300b0ff0700a1c2b3006a
:1013200030c0b300adff070081c2b30040c0b300be
:10133000aaff070031c0b30050c0b300a7ff0700e9
:1013400021c2b30060c0b300a4ff070001c8b3000e
:101350000040eb00a1ff07000080fa00000006003b
:101360000000fa008040eb000040eb009bff07000c
:1013700081c1b30070c0b30098ff07008040eb004c
:10138000d0c0b30095ff07008040eb00a0c0b300c1
:1013900092ff070001c4b3000040eb008fff07007d
:1013a0000080fa00000006000200fa00d0c0b3007e
:1013b00097ff0700004f78009e40780068cf6000dc
:1013c0009e407800d0c0b30084ff07000080fa0080
:1013d000000006000800fa000000eb00000f780093
:1013e0000000eb00100798000000eb0020079800b9
:1013f00035fe070070c9b30007fe07000040eb0090
:1014000016fe07006047980010c0b30013fe0700e7
:101410007047980035fe07006e4090000080fb008a
:101420001e0070004600dd00000f78007e40900036
:101430008080fb00c00f2000808060001e009000b4
:10144000010070004200de00100798001e009000ae
:101450001e007000200798002e0090008000eb0016
:1014600007fd07003233230033b3230044fd070098
:101470000001be0063fc0700628f2200c3ed230061
:1014800060fc07000080fa00000006000600fa0079
:10149000c102a900c882a900c082a900c122a90076
:1014a000c702a900ce82a900c682a900c722a9004e
:1014b000c302a800ca82a800c322a80000a8210075
:1014c000610020004601070001c8b30010c0b3004e
:1014d0004000070000c4290001002000400107006f
:1014e00010c0b3006700070001c8b300814f50006f
:1014f00001003200ffff37008040eb00e0c0b30086
:10150000340007008040eb00f0c0b300310007005a
:101510006a00070021c7b300d0c1b3002d00070047
:1015200041c7b300e0c1b3002a00070041c0b300c7
:1015300060c2b300270007008040eb0000c2b30088
:101540002400070081c0b30010c2b30021000700cf
:1015500000002c00410e2000008fbe001e00be00c7
:101560004008de00004078008040780060c0b30092
:10157000180007001e00be004809dd004800de001c
:1015800000007100c808de0000407800804078004c
:1015900070c0b3000f0007001e0078000040780004
:1015a0008040780080c0b3000a00070010c0b3007c
:1015b0004047980041c0b300d0c4b3000500070005
:1015c00081c8b30090c0b300020007000080fa0099
:1015d000000006000200fa00004f78001147980052
:1015e0001e74a000c322a9004000200001002000ba
:1015f000fb0007001e40780039fe07001e409000e7
:1016000037fe0700c322a8000080fa000000060091
:101610000800fa00204798002107980062479800c8
:101620002e4090000074a00020479800c322a9001b
:101630004000200001002000e90007002e4090003b
:1016400027fe07000000eb00000f780006003700bf
:101650001e007800ae00900000804000104078002e
:101660001ffe07001e0fe8006e4090000080fb0088
:101670009e0f5000f6ff3c00c322a8000080fa0035
:10168000000006000400fa00204798002e40900059
:101690000074a10020479800c322a9002e409000aa
:1016a0000ffe07001bfe0700004f7800c322a800b2
:1016b0001e4078000080fa00000006000000fa00da
:1016c00001c8bf000004e0000400320011c0b300f4
:1016d00010c0b300bfff07000168ef000080fa00f0
:1016e000000006000000fa0001c8bf00e14f5000f2
:1016f000050032008040eb0010c0b300b5ff0700ca
:1017000010c0b30001e8b7000080fa000000060036
:101710000000fa0001c8bf00e24f5000050032008f
:1017200031c0b30010c0b300aaff070020c0b3004f
:1017300001e8b7000080fa00000006000400fa008b
:10174000000f780021479800dcff07008040eb0085
:10175000d0c0b3009fff070051c4b3000040eb00ae
:101760009cff070061c4b3000040eb0099ff070035
:1017700071c4b3000040eb0096ff070081c4b300c2
:101780000040eb0093ff07002e4190009e00780080
:101790000040eb009eff07002e4090006440400098
:1017a0008040780020c2b3008aff0700d8ff0700fe
:1017b00000a821006100200089000700c9ff070080
:1017c00000c4290001002000850007000080fa0005
:1017d000000006000000fa0002c8bf000004e0009c
:1017e00011003a00defc0700e1fc0700d5fd070010
:1017f00001fd07004ffd070024ff0700c862a90094
:10180000d662a900c062a900c662a90047fe07000f
:1018100010c0b30002e8b70000502300c100200050
:101820006f00070001003700000000000080fa0090
:10183000000006000000fa000efe07000900070085
:1018400013fe070034000700ca62a8004001200010
:101850000100200062000700ca62a9000080fa00af
:10186000000006000200fa0080c0b3004500070037
:10187000204088003140880070c0b300320007006b
:101880004040880051408800d2fe07006040880038
:10189000714088000040eb00004f780019003700cd
:1018a0001e80fb000000e8001e81fb00418020003c
:1018b0008100410011417800018120008270780090
:1018c0001e80fb000000e8001e81fb0081802000dc
:1018d0008100410011417800518120008270780020
:1018e0001e80fb000000e8001e81fb00c18020007c
:1018f0008100410011417800a181200082707800b0
:101900001e4fe8001e407800e34f5000e4ff360011
:101910000080fa00000006000000fa0051c0b30089
:101920000081200085ff070051c0b30050812000d6
:1019300082ff070051c0b300a08120007fff070095
:101940000080fa00000006000200fa00004f780054
:101950001e407800abfd0700323323003303240020
:1019600085fb070002002000a32f240004fc0700d1
:10197000020020008314240021fb07000080fa00ed
:10198000000006000200fa00004f78001e407800b8
:101990009cfd0700323323003303240076fb07004d
:1019a00002002c00a3352400f5fb070002002c00e8
:1019b0005328240012fb07000080fa0000000600f4
:1019c0000000fa0083ff07009aff07004000200094
:1019d00001002000020007000040fe00faff37006f
:020000040000fa
:1019e000f03fb1000180b10006003500ee030900b0
:1019f00000000000403fb1000180b100fbff3d004e
:101a00001000b000203fb000020035000080090047
:081a10000000000000000600c8
:020000040000fa
:101a18001008000010000000020000000100000093
:101a280000000200000000000003000000000000a9
:101a38000000000000080000100000000000000086
:041a4800000000009a
:020000040000fa
:020000040001f9
:0457f0001aff00009c
:020000040000fa
:020000040001f9
:0457f400fff40000be
:020000040000fa
:020000040001f9
:0457f8008ff8000026
:020000040000fa
:020000040001f9
:0457fc00ed3f00007d
:00000001FF
