:020000040000fa
:080000000002040000000000f2
:020000040000fa
:04000800de02000014
:020000040000fa
:04000c00de02000010
:020000040000fa
:04001000de0200000c
:020000040000fa
:04001400de02000008
:020000040000fa
:04001800de02000004
:020000040000fa
:04001c00de02000000
:020000040000fa
:04002000de020000fc
:020000040000fa
:04002400de020000f8
:020000040000fa
:04002800ce02000004
:020000040000fa
:04002c00de020000f0
:020000040000fa
:04003000de020000ec
:020000040000fa
:04003400de020000e8
:020000040000fa
:04003800de020000e4
:020000040000fa
:04003c00de020000e0
:020000040000fa
:04004000de020000dc
:020000040000fa
:04004400de020000d8
:020000040000fa
:04004800de020000d4
:020000040000fa
:04004c00de020000d0
:020000040000fa
:04005000de020000cc
:020000040000fa
:04005400de020000c8
:020000040000fa
:04005800de020000c4
:020000040000fa
:04005c00de020000c0
:020000040000fa
:04006000de020000bc
:020000040000fa
:04006400de020000b8
:020000040000fa
:04006800de020000b4
:020000040000fa
:04006c00de020000b0
:020000040000fa
:04007000de020000ac
:020000040000fa
:04007400de020000a8
:020000040000fa
:04007800d6020000ac
:020000040000fa
:04007c00de020000a0
:020000040000fa
:04008000de0200009c
:020000040000fa
:04008400de02000098
:020000040000fa
:04008800de02000094
:020000040000fa
:04008c00de02000090
:020000040000fa
:04009000de0200008c
:020000040000fa
:04009400de02000088
:020000040000fa
:04009800de02000084
:020000040000fa
:04009c00de02000080
:020000040000fa
:0400a000de0200007c
:020000040000fa
:0400a400de02000078
:020000040000fa
:0400a800de02000074
:020000040000fa
:0400ac00de02000070
:020000040000fa
:0400b000de0200006c
:020000040000fa
:0400b400de02000068
:020000040000fa
:0400b800de02000064
:020000040000fa
:0400bc00de02000060
:020000040000fa
:0400c000de0200005c
:020000040000fa
:0400c400de02000058
:020000040000fa
:0400c800de02000054
:020000040000fa
:0400cc00de02000050
:020000040000fa
:0400d000de0200004c
:020000040000fa
:0400d400de02000048
:020000040000fa
:0400d800de02000044
:020000040000fa
:0400dc00de02000040
:020000040000fa
:0400e000de0200003c
:020000040000fa
:0400e400de02000038
:020000040000fa
:0400e800de02000034
:020000040000fa
:0400ec00de02000030
:020000040000fa
:0400f000de0200002c
:020000040000fa
:0400f400de02000028
:020000040000fa
:0400f800de02000024
:020000040000fa
:0400fc00de02000020
:020000040000fa
:04010000de0200001b
:020000040000fa
:04010400de02000017
:020000040000fa
:04010800de02000013
:020000040000fa
:04010c00de0200000f
:020000040000fa
:04011000de0200000b
:020000040000fa
:04011400de02000007
:020000040000fa
:04011800de02000003
:020000040000fa
:04011c00de020000ff
:020000040000fa
:04012000de020000fb
:020000040000fa
:04012400de020000f7
:020000040000fa
:04012800de020000f3
:020000040000fa
:04012c00de020000ef
:020000040000fa
:04013000de020000eb
:020000040000fa
:04013400de020000e7
:020000040000fa
:04013800de020000e3
:020000040000fa
:04013c00de020000df
:020000040000fa
:04014000de020000db
:020000040000fa
:04014400de020000d7
:020000040000fa
:04014800de020000d3
:020000040000fa
:04014c00de020000cf
:020000040000fa
:04015000de020000cb
:020000040000fa
:04015400de020000c7
:020000040000fa
:04015800de020000c3
:020000040000fa
:04015c00de020000bf
:020000040000fa
:04016000de020000bb
:020000040000fa
:04016400de020000b7
:020000040000fa
:04016800de020000b3
:020000040000fa
:04016c00de020000af
:020000040000fa
:04017000de020000ab
:020000040000fa
:04017400de020000a7
:020000040000fa
:04017800de020000a3
:020000040000fa
:04017c00de0200009f
:020000040000fa
:04018000c8020000b1
:020000040000fa
:04020800de02000012
:020000040000fa
:04020c00de0200000e
:020000040000fa
:04021000de0200000a
:020000040000fa
:04021400de02000006
:020000040000fa
:04021800de02000002
:020000040000fa
:04021c00de020000fe
:020000040000fa
:04022000de020000fa
:020000040000fa
:04022400de020000f6
:020000040000fa
:04022800de020000f2
:020000040000fa
:04022c00de020000ee
:020000040000fa
:04023000de020000ea
:020000040000fa
:04023400de020000e6
:020000040000fa
:04023800de020000e2
:020000040000fa
:04023c00de020000de
:020000040000fa
:04024000de020000da
:020000040000fa
:04024400de020000d6
:020000040000fa
:04024800de020000d2
:020000040000fa
:04024c00de020000ce
:020000040000fa
:04025000de020000ca
:020000040000fa
:04025400de020000c6
:020000040000fa
:04025800de020000c2
:020000040000fa
:04025c00de020000be
:020000040000fa
:04026000de020000ba
:020000040000fa
:04026400de020000b6
:020000040000fa
:04026800de020000b2
:020000040000fa
:04026c00de020000ae
:020000040000fa
:04027000de020000aa
:020000040000fa
:04027400de020000a6
:020000040000fa
:04027800de020000a2
:020000040000fa
:04027c00de0200009e
:020000040000fa
:04028000de0200009a
:020000040000fa
:04028400de02000096
:020000040000fa
:04028800de02000092
:020000040000fa
:04028c00de0200008e
:020000040000fa
:04029000de0200008a
:020000040000fa
:04029400de02000086
:020000040000fa
:04029800de02000082
:020000040000fa
:04029c00de0200007e
:020000040000fa
:0402a000de0200007a
:020000040000fa
:0402a400de02000076
:020000040000fa
:0402a800de02000072
:020000040000fa
:0402ac00de0200006e
:020000040000fa
:0402b000de0200006a
:020000040000fa
:0402b400de02000066
:020000040000fa
:0402b800de02000062
:020000040000fa
:0402bc00de0200005e
:020000040000fa
:0402c000de0200005a
:020000040000fa
:0402c400de02000056
:020000040000fa
:0402c800de02000052
:020000040000fa
:0402cc00de0200004e
:020000040000fa
:0402d000de0200004a
:020000040000fa
:0402d400de02000046
:020000040000fa
:0402d800de02000042
:020000040000fa
:0402dc00de0200003e
:020000040000fa
:0402e000de0200003a
:020000040000fa
:0402e400de02000036
:020000040000fa
:0402e800de02000032
:020000040000fa
:0402ec00de0200002e
:020000040000fa
:0402f000de0200002a
:020000040000fa
:0402f400de02000026
:020000040000fa
:0402f800de02000022
:020000040000fa
:0402fc00de0200001e
:020000040000fa
:04030000de02000019
:020000040000fa
:04030400de02000015
:020000040000fa
:04030800de02000011
:020000040000fa
:04030c00de0200000d
:020000040000fa
:04031000de02000009
:020000040000fa
:04031400de02000005
:020000040000fa
:04031800de02000001
:020000040000fa
:04031c00de020000fd
:020000040000fa
:04032000de020000f9
:020000040000fa
:04032400de020000f5
:020000040000fa
:04032800de020000f1
:020000040000fa
:04032c00de020000ed
:020000040000fa
:04033000de020000e9
:020000040000fa
:04033400de020000e5
:020000040000fa
:04033800de020000e1
:020000040000fa
:04033c00de020000dd
:020000040000fa
:04034000de020000d9
:020000040000fa
:04034400de020000d5
:020000040000fa
:04034800de020000d1
:020000040000fa
:04034c00de020000cd
:020000040000fa
:04035000de020000c9
:020000040000fa
:04035400de020000c5
:020000040000fa
:04035800de020000c1
:020000040000fa
:04035c00de020000bd
:020000040000fa
:04036000de020000b9
:020000040000fa
:04036400de020000b5
:020000040000fa
:04036800de020000b1
:020000040000fa
:04036c00de020000ad
:020000040000fa
:04037000de020000a9
:020000040000fa
:04037400de020000a5
:020000040000fa
:04037800de020000a1
:020000040000fa
:04037c00de0200009d
:020000040000fa
:04038000de02000099
:020000040000fa
:100400004f8020000e7f22000e01880000000000b7
:10041000000020000000e000020032000001200087
:100420002002880014000700660007000000e000ba
:1004300003003a00404b200001002000020037007a
:100440000000200001002000810f70000100320038
:1004500014000700000020000000e000020032004d
:100460000000020000000000a204020000000000e2
:100470000040da000000fe004440a9000000200017
:100480000000e0000300320000002000a00188000e
:100490004440a800000006008a1f78008b1f7800e7
:1004a0000000060091018800800478000000eb0045
:1004b0001a003700e284440032a0b4009905ba0063
:1004c000e284440032a0b4009906ba00e2844400f9
:1004d00032a0b4000006eb00476fde00fd07b2005b
:1004e000636ce10003003a00ebff07000000eb0043
:1004f0000a003700606ce10004003a00005deb0088
:100500008b05e900fdff3e00040037006168e10053
:10051000010032000086eb000b00070019c7ba008b
:100520001905ba000e04e00003003a000a00e000da
:10053000e0ff3a0000000600fe07b2009e018800be
:100540008a047800f5ff3700395dba008b05e900b1
:100550000c003200295dba008b05e900080032006a
:100560000c00e00003003a00e284440032a0b40032
:10057000f5ff370019ddba008b05e900faff3a00f4
:100580008904e800e184440032a0b40000000600c1
:100590000000fa000080fa00004006000000fa00a7
:1005a0008400a9000080fa00004006000000fa0064
:1005b0008680a9000080fa00004006000040da00b2
:0805c0000000fe000000050030
:020000040000fa
:1005c8000000fa0071e7a80071c7a80071a7a80089
:1005d8007187a8007167a80070e7a8007427a800b1
:1005e80070c7a80070a7a8007087a8007067a80047
:1005f8007007a8007387a8007367a8007347a8004e
:100608007327a8007307a8007287a8007267a8005c
:100618007247a8007227a8007207a8007547a800ab
:100628007527a8007507a80074e7a80076c7a80072
:100638007667a8007647a8007627a8007607a8005e
:100648000080fa00000006000000fa00c222a9009b
:10065800c022a9007007a90021e3a900c9c2a80007
:10066800c9e2a800c842a800d002a800d022a80069
:10067800d042a8002d43a8002d23a8002c83a80051
:100688002cc3a8002ce3a8002d03a80001198000a2
:10069800f0cf2f0000806000001988000119800049
:1006a800000e200001007000001988002043a800f7
:1006b80011198000f0ff21000080600000d0a00028
:1006c800101988002223a9002203a90021198000fb
:1006d800f00f2e00008060000080a0002019880024
:1006e80028e3a9000080fa00000006000000fa00d4
:1006f800c222a80021e3a8000080fa00000006003a
:100708000000fa00c222a9007007a8000080fa00c1
:10071800000006000000fa002023a80000000000e6
:1007280000198000610060000000e000fcff32005a
:100738000080fa00000006000200fa00004f78006e
:10074800eaff07009e4078007fc060000080fb0041
:100758007f0060004219800001fe2f0081006100c7
:100768000100700040198800eaff07006000b80027
:100778000080fa00000006000000fa000080fa007d
:10078800000006000000fa007087a90061e2a900d5
:10079800d0c2a800d102a900d122a900d0e2a900a4
:1007a800d6c2a900d6c2a900d6c2a900d6c2a9003d
:1007b800113a8000f00b20000081600060042000e6
:1007c8007105200023742000804978008149780051
:1007d800824978006135800000fe2f0000806000ab
:1007e8006001b30060358800c136800000fe2f002c
:1007f80000806000a000b300c0368800c1368000c9
:10080800f00f2e008080600000b020000100700012
:10081800c0368800103a8000000178000260a0000d
:1008280060042000710520002374200080497800ae
:1008380081497800824978007087a8000080fa0012
:10084800000006000000fa000080fa000000060020
:100858000000fa000080fa00000006000000fa001c
:10086800caa2a900c8a2a8007607a9009404a900f2
:100878000080fa00000006000000fa0050ff0700a0
:10088800020007000080fa00000006000000fa00dd
:10089800cae2a900cba2a900c8e2a800c9a2a80080
:1008a800113a8000f00b20000081600060042000f5
:1008b8007105200023742000804978008149780060
:1008c8008249780001348000f00f2e00808060009b
:1008d80000d020000100700000348800103a800029
:1008e800000178000260a00060042000710520006b
:1008f8002374200080497800814978008249780073
:100908008200a9008220a9008400a9008680a9008d
:100918009400a8009680a8000080fa000000060055
:100928000000fa00a0c0b30083ff07000040880061
:10093800114088000080fa00000006000400fa0058
:10094800cdff0700c862a900ce62a9003eff0700dc
:10095800a0c0b30078ff0700008fbe00ffff37007c
:020000040000fa
:100968000008000004000000000000000000000073
:020000040000fa
:020000040001f9
:0457f0009aff00001c
:020000040000fa
:020000040001f9
:0457f400fff40000be
:020000040000fa
:020000040001f9
:0457f8000ff70000a7
:020000040000fa
:020000040001f9
:0457fc007f7f0000ab
:00000001FF
