:020000040000fa
:080000000002040000000000f2
:020000040000fa
:04000800e80200000a
:020000040000fa
:04000c00e802000006
:020000040000fa
:04001000e802000002
:020000040000fa
:04001400e8020000fe
:020000040000fa
:04001800e8020000fa
:020000040000fa
:04001c00e8020000f6
:020000040000fa
:04002000e8020000f2
:020000040000fa
:04002400e8020000ee
:020000040000fa
:04002800c80200000a
:020000040000fa
:04002c00e8020000e6
:020000040000fa
:04003000e8020000e2
:020000040000fa
:04003400e8020000de
:020000040000fa
:04003800e8020000da
:020000040000fa
:04003c00e8020000d6
:020000040000fa
:04004000e8020000d2
:020000040000fa
:04004400e8020000ce
:020000040000fa
:04004800e8020000ca
:020000040000fa
:04004c00e8020000c6
:020000040000fa
:04005000e8020000c2
:020000040000fa
:04005400e8020000be
:020000040000fa
:04005800e8020000ba
:020000040000fa
:04005c00e8020000b6
:020000040000fa
:04006000e8020000b2
:020000040000fa
:04006400e8020000ae
:020000040000fa
:04006800e8020000aa
:020000040000fa
:04006c00e8020000a6
:020000040000fa
:04007000e8020000a2
:020000040000fa
:04007400e80200009e
:020000040000fa
:04007800d0020000b2
:020000040000fa
:04007c00e802000096
:020000040000fa
:04008000e802000092
:020000040000fa
:04008400e80200008e
:020000040000fa
:04008800e80200008a
:020000040000fa
:04008c00e802000086
:020000040000fa
:04009000e802000082
:020000040000fa
:04009400e80200007e
:020000040000fa
:04009800e80200007a
:020000040000fa
:04009c00e802000076
:020000040000fa
:0400a000e802000072
:020000040000fa
:0400a400e80200006e
:020000040000fa
:0400a800e80200006a
:020000040000fa
:0400ac00e802000066
:020000040000fa
:0400b000e802000062
:020000040000fa
:0400b400e80200005e
:020000040000fa
:0400b800e80200005a
:020000040000fa
:0400bc00e802000056
:020000040000fa
:0400c000e802000052
:020000040000fa
:0400c400e80200004e
:020000040000fa
:0400c800e80200004a
:020000040000fa
:0400cc00e802000046
:020000040000fa
:0400d000e802000042
:020000040000fa
:0400d400e80200003e
:020000040000fa
:0400d800e80200003a
:020000040000fa
:0400dc00e802000036
:020000040000fa
:0400e000e802000032
:020000040000fa
:0400e400e80200002e
:020000040000fa
:0400e800e80200002a
:020000040000fa
:0400ec00e802000026
:020000040000fa
:0400f000e802000022
:020000040000fa
:0400f400e80200001e
:020000040000fa
:0400f800e80200001a
:020000040000fa
:0400fc00e802000016
:020000040000fa
:04010000e802000011
:020000040000fa
:04010400e80200000d
:020000040000fa
:04010800e802000009
:020000040000fa
:04010c00e802000005
:020000040000fa
:04011000e802000001
:020000040000fa
:04011400e8020000fd
:020000040000fa
:04011800e8020000f9
:020000040000fa
:04011c00e8020000f5
:020000040000fa
:04012000d802000001
:020000040000fa
:04012400e8020000ed
:020000040000fa
:04012800e8020000e9
:020000040000fa
:04012c00e8020000e5
:020000040000fa
:04013000e8020000e1
:020000040000fa
:04013400e8020000dd
:020000040000fa
:04013800e8020000d9
:020000040000fa
:04013c00e8020000d5
:020000040000fa
:04014000e8020000d1
:020000040000fa
:04014400e8020000cd
:020000040000fa
:04014800e8020000c9
:020000040000fa
:04014c00e8020000c5
:020000040000fa
:04015000e8020000c1
:020000040000fa
:04015400e8020000bd
:020000040000fa
:04015800e8020000b9
:020000040000fa
:04015c00e8020000b5
:020000040000fa
:04016000e8020000b1
:020000040000fa
:04016400e8020000ad
:020000040000fa
:04016800e8020000a9
:020000040000fa
:04016c00e8020000a5
:020000040000fa
:04017000e8020000a1
:020000040000fa
:04017400e80200009d
:020000040000fa
:04017800e802000099
:020000040000fa
:04017c00e802000095
:020000040000fa
:04018000e002000099
:020000040000fa
:04020800e802000008
:020000040000fa
:04020c00e802000004
:020000040000fa
:04021000e802000000
:020000040000fa
:04021400e8020000fc
:020000040000fa
:04021800e8020000f8
:020000040000fa
:04021c00e8020000f4
:020000040000fa
:04022000e8020000f0
:020000040000fa
:04022400e8020000ec
:020000040000fa
:04022800e8020000e8
:020000040000fa
:04022c00e8020000e4
:020000040000fa
:04023000e8020000e0
:020000040000fa
:04023400e8020000dc
:020000040000fa
:04023800e8020000d8
:020000040000fa
:04023c00e8020000d4
:020000040000fa
:04024000e8020000d0
:020000040000fa
:04024400e8020000cc
:020000040000fa
:04024800e8020000c8
:020000040000fa
:04024c00e8020000c4
:020000040000fa
:04025000e8020000c0
:020000040000fa
:04025400e8020000bc
:020000040000fa
:04025800e8020000b8
:020000040000fa
:04025c00e8020000b4
:020000040000fa
:04026000e8020000b0
:020000040000fa
:04026400e8020000ac
:020000040000fa
:04026800e8020000a8
:020000040000fa
:04026c00e8020000a4
:020000040000fa
:04027000e8020000a0
:020000040000fa
:04027400e80200009c
:020000040000fa
:04027800e802000098
:020000040000fa
:04027c00e802000094
:020000040000fa
:04028000e802000090
:020000040000fa
:04028400e80200008c
:020000040000fa
:04028800e802000088
:020000040000fa
:04028c00e802000084
:020000040000fa
:04029000e802000080
:020000040000fa
:04029400e80200007c
:020000040000fa
:04029800e802000078
:020000040000fa
:04029c00e802000074
:020000040000fa
:0402a000e802000070
:020000040000fa
:0402a400e80200006c
:020000040000fa
:0402a800e802000068
:020000040000fa
:0402ac00e802000064
:020000040000fa
:0402b000e802000060
:020000040000fa
:0402b400e80200005c
:020000040000fa
:0402b800e802000058
:020000040000fa
:0402bc00e802000054
:020000040000fa
:0402c000e802000050
:020000040000fa
:0402c400e80200004c
:020000040000fa
:0402c800e802000048
:020000040000fa
:0402cc00e802000044
:020000040000fa
:0402d000e802000040
:020000040000fa
:0402d400e80200003c
:020000040000fa
:0402d800e802000038
:020000040000fa
:0402dc00e802000034
:020000040000fa
:0402e000e802000030
:020000040000fa
:0402e400e80200002c
:020000040000fa
:0402e800e802000028
:020000040000fa
:0402ec00e802000024
:020000040000fa
:0402f000e802000020
:020000040000fa
:0402f400e80200001c
:020000040000fa
:0402f800e802000018
:020000040000fa
:0402fc00e802000014
:020000040000fa
:04030000e80200000f
:020000040000fa
:04030400e80200000b
:020000040000fa
:04030800e802000007
:020000040000fa
:04030c00e802000003
:020000040000fa
:04031000e8020000ff
:020000040000fa
:04031400e8020000fb
:020000040000fa
:04031800e8020000f7
:020000040000fa
:04031c00e8020000f3
:020000040000fa
:04032000e8020000ef
:020000040000fa
:04032400e8020000eb
:020000040000fa
:04032800e8020000e7
:020000040000fa
:04032c00e8020000e3
:020000040000fa
:04033000e8020000df
:020000040000fa
:04033400e8020000db
:020000040000fa
:04033800e8020000d7
:020000040000fa
:04033c00e8020000d3
:020000040000fa
:04034000e8020000cf
:020000040000fa
:04034400e8020000cb
:020000040000fa
:04034800e8020000c7
:020000040000fa
:04034c00e8020000c3
:020000040000fa
:04035000e8020000bf
:020000040000fa
:04035400e8020000bb
:020000040000fa
:04035800e8020000b7
:020000040000fa
:04035c00e8020000b3
:020000040000fa
:04036000e8020000af
:020000040000fa
:04036400e8020000ab
:020000040000fa
:04036800e8020000a7
:020000040000fa
:04036c00e8020000a3
:020000040000fa
:04037000e80200009f
:020000040000fa
:04037400e80200009b
:020000040000fa
:04037800e802000097
:020000040000fa
:04037c00e802000093
:020000040000fa
:04038000e80200008f
:020000040000fa
:100400002f8020000e7f22000e01880000000000d7
:10041000000020000000e000020032000001200087
:1004200020028800140007006b0007000000e000b5
:1004300003003a0040a6200001002000020037001f
:100440000000200001002000810f70000100320038
:1004500014000700000020000000e000020032004d
:1004600000000200000000001e0a02000000000060
:100470000040da000000fe004440a9000000200017
:100480000000e0000300320000002000a00188000e
:100490004440a800000006008a1f78008b1f7800e7
:1004a0000000060091018800800478000000eb0045
:1004b0001a003700e284440032a0b4009905ba0063
:1004c000e284440032a0b4009906ba00e2844400f9
:1004d00032a0b4000006eb00476fde00fd07b2005b
:1004e000636ce10003003a00ebff07000000eb0043
:1004f0000a003700606ce10004003a00005deb0088
:100500008b05e900fdff3e00040037006168e10053
:10051000010032000086eb000b00070019c7ba008b
:100520001905ba000e04e00003003a000a00e000da
:10053000e0ff3a0000000600fe07b2009e018800be
:100540008a047800f5ff3700395dba008b05e900b1
:100550000c003200295dba008b05e900080032006a
:100560000c00e00003003a00e284440032a0b40032
:10057000f5ff370019ddba008b05e900faff3a00f4
:100580008904e800e184440032a0b40000000600c1
:100590000000fa008400a9000080fa000040060074
:1005a0000000fa008680a9000080fa0000400600e2
:1005b0000000fa008bc0a9000080fa00004006008d
:1005c0000000fa008ec0a9000080fa00004006007a
:1005d0000040da000000fe000000050003f0a20069
:1005e000889fbe008a9fbe008c1f7800c300070052
:1005f000ca0033006450e1004f0032006420e10083
:100600005200320003826c0007003b000905d00055
:100610000306d000820f54000c065d000200390072
:1006200002003200890178000306780085825500b7
:1006300004003d000003fd008103fd008502ea0087
:100640008b854200840f720002003b0060001000a6
:10065000e08018006011b8000005eb007a28e10086
:100660000a00390006007800c75ddd00f707b20018
:10067000878075002d003700828171000a017800a3
:10068000610560008180d1000080d3008502e9000f
:10069000f9ff3b00060440008784480002003b004d
:1006a00060041400e0841c000988a30007003200e5
:1006b0008a81710082817100610164008904d10026
:1006c0000884d3008b05e800170037000978a300e1
:1006d00013003a000b00e000130034008b05e90022
:1006e0000804440089844c000a4474000978a3007b
:1006f0000d003a000b00e000070034008b05e90014
:100700000804440089844c0001003a000b002000da
:100710000978a300f7ff32000001eb000200370068
:10072000828171000a0178004e0007000cf0a700da
:1007300001f0a000820037006420e10002003a00ce
:10074000838f6c00820033000801be000200be00ef
:100750007b003700889fbe008a9fbe008c1f7800f8
:10076000660007006d00330003866c006450e100f2
:100770002e0032006420e100330032006150e100bd
:100780002f0032006120e1003100320085855500e4
:10079000eb07b00009002000080420000500370026
:1007a0000804440089844c000a0031000603430019
:1007b00087834b000001530081815b00f8ff330009
:1007c0000203be000800a0000804440089844c0015
:1007d000f6ff3900c639dd008301730001003200e5
:1007e000130020008904d1000884d3000998a300d5
:1007f000050032000800a7000300a0008904d10012
:100800000884d3008b05e8008904d1000884d30054
:100810000001eb000281d2001200070001f0a100ec
:100820000cf0a70001f0a000450037006420e100b3
:10083000470032000801be000200be00f7ff37008b
:100840006120e100420032006000b800f3ff370091
:100850000000200001f82700f0ff37006011b80009
:100860007200370081002000618055000b003d00c0
:100870000b00200061fe2f000100e1001d0034008c
:1008800082817100610164008904d1000884d30071
:100890000000e800faff3a007100200061006400e7
:1008a000030070000200600009003200610444008f
:1008b000e0844c000988a500050032008b05e800a3
:1008c0006808e10002003a008904d1000884d300de
:1008d000f20f20000258e10005003d00c75ddd0079
:1008e000f907b20089807500080078000000060052
:1008f0000bf827008b007800000005000004be0004
:10090000790007000003be000405be000200be001f
:1009100075000700844f7500000006000200be004d
:100920006450e100050036006420e100020036005a
:100930000968a30001003a000800be000160a000a1
:100940004f0678004f05be004f04be0000000600b1
:10095000f0ff2f00f1ff2700f9ff3700889fbe004e
:100960008a9fbe008c1f7800e4ff0700ebff330076
:1009700003866c006450e100240032006420e10032
:10098000270032006150e100220032006120e100c6
:10099000210032008b854200eb07b1000134b80022
:1009a000003ab8000804420089844a00013ab800bd
:1009b0000030b8008880400009014a00040033007c
:1009c0000000400081804800020149008b05e900d9
:1009d000c909dd008301700001003200130020000e
:1009e000c814de004814dd004709de001200b20022
:1009f000c808de00088470009aff070001f0a1001b
:100a00000cf0a70001f0a000cdff37006120e1004d
:100a1000cfff32000801be000200be00f7ff370022
:100a20006150e100fcff3a00c9ff3700889fbe001b
:100a30008a9fbe000082700004027100048271006f
:100a4000260032000004be000200be006011b800a3
:100a50006b092000950220000182cf000a003900b6
:100a60000541b1000082cf00070039000541b10007
:100a70000982cf00040039000541b1000882cf008f
:100a8000010039000541b100054252001200320058
:100a90000a003b0082817100610164008100d10085
:100aa0000080d3008984d3000884d3008b05e8003c
:100ab0000442e800f7ff3a0007003700080444004a
:100ac00089844c0000004800818048008b05e900c3
:100ad0000442e900f9ff3a0062ff07004f05be003b
:100ae0004f04be0000000600c70ade00f107b20096
:100af000f50fb20008003200e1cf420002003200e0
:100b00000170a00024000500810f70000100320078
:100b10000408050044000500810f700002003a003f
:100b2000140005008502e9000000400081c0480073
:0c0b3000fcff3b000170a0002400050049
:020000040000fa
:100b3c000000fa0081e0a8000080fa000000060026
:100b4c000000fa0071e7a80071c7a80071a7a800ff
:100b5c007187a8007167a80070e7a8007427a80027
:100b6c0070c7a80070a7a8007087a8007067a800bd
:100b7c007007a8007387a8007367a8007347a800c4
:100b8c007327a8007307a8007287a8007267a800d3
:100b9c007247a8007227a8007207a8007547a80022
:100bac007527a8007507a80074e7a80076c7a800e9
:100bbc007667a8007647a8007627a8007607a800d5
:100bcc000080fa00000006000000fa0070e7a9009f
:100bdc0007e2a900700220002010880009e2a8009a
:100bec0007e2a8000080fa00000006000200fa00ec
:100bfc00004f78001e80fb001010880000000000e1
:100c0c0040108000610060000000e000fcff3a0032
:100c1c0000000000411080000000240000806000f3
:100c2c000000e000fbff3a000080fa000000060024
:100c3c000200fa00004f78000662a80000000000d5
:100c4c0040108000620060000000e000fcff3200f9
:100c5c009e40780061c060000080fb006100600075
:100c6c004500dd0032108000f1fd2f008100610095
:100c7c00010070003010880000000000301080006f
:100c8c00700060000000e000fcff3a0000108000e3
:100c9c00004078000080fa00000006000000fa0016
:100cac000602a80000000000301080006100600007
:100cbc000000e000fcff3a000080fa000000060093
:100ccc000000fa000642a80000000000301080006e
:100cdc00640060000000e000fcff3a000080fa00b5
:100cec00000006000000fa000622a8000000000028
:100cfc0030108000620060000000e000fcff3a0051
:100d0c000080fa00000006000000fa007067a900dd
:100d1c0041e2a900113a8000f00b20000081600034
:100d2c0060042000710520002374200080497800a5
:100d3c0081497800824978004135800000fe2f00ff
:100d4c00008060005001b3004035880061358000a0
:100d5c0000fe2f00008060006001b3006035880049
:100d6c00a136800000fe2f00008060007000b300f0
:100d7c00a036880091368000f00f2e0000806000b5
:100d8c0000b0a00090368800c136800000fe2f0015
:100d9c0000806000a000b300c0368800c13680001f
:100dac00f00f2e008080600000b020000100700069
:100dbc00c0368800103a8000000178000260a00064
:100dcc006004200071052000237420008049780005
:100ddc008149780082497800d0a2a800d082a9006d
:100dec00d062a900d6a2a900d682a900d662a90019
:100dfc002d83a80042a2a80042c2a9004322a90048
:100e0c004302a80040c2a90010128000c001b30028
:100e1c001012880011128000c0ff2f0000806000ab
:100e2c000010a0001012880041e2a8000080fa0017
:100e3c00000006000000fa007087a90061e2a9001a
:100e4c00d0c2a800d102a900d122a900d0e2a900e9
:100e5c00d6c2a900d702a900d722a900d6e2a900c0
:100e6c0061e2a8000080fa00000006000200fa000f
:100e7c00004f78001e80fb0040128800000000002c
:100e8c0000128000620060000000e000fcff3a00ed
:100e9c000080fa00000006000000fa004822ef0073
:100eac000000000000128000610060000000e00003
:100ebc00fcff320040128000004078000080fa00f5
:100ecc00000006000000fa00c222a900c022a900fe
:100edc007007a90021e3a900c9c2a800c9e2a800b3
:100eec00c842a800d002a800d022a800d042a80076
:100efc002d43a9002d23a9002c83a9002cc3a900e4
:100f0c002ce3a9002d03a90001198000f0cf2f00bc
:100f1c00008060000019880001198000000e20007c
:100f2c0001007000001988002043a90011198000ed
:100f3c00f0ff21000080600000d0a0001019880094
:100f4c002223a9002203a90025e3a900211980006e
:100f5c00f00f2e00008060000080a0002019880097
:100f6c002463ef0028e3a900c222a80021e3a80013
:100f7c00007d200001002000420107000080fa00e3
:100f8c00000006000200fa00004f78009e40780036
:100f9c007fc060000080fb007f0060004219800071
:100fac0001fe2f00810061000100700040198800d3
:100fbc002023a80040002000010020003101070080
:100fcc000000000000198000610060000000e000db
:100fdc00fcff3200001880008000eb001cfe0700b4
:100fec00f226210033b0230059fe07000080fa00de
:100ffc00000006000000fa00c262a900c062a9004d
:10100c00c662a9000080fa00000006000000fa0089
:10101c00c262a8000080fa00000006000000fa007e
:10102c00c262a9000080fa00000006000000fa006d
:10103c000080fa00000006000000fa00113a80005f
:10104c00f00b20000081600060042000710520007e
:10105c002374200080497800814978008249780007
:10106c0001348000f00f2e008080600000d0200042
:10107c000100700000348800103a800000017800f4
:10108c000260a00060042000710520002374200081
:10109c00804978008149780082497800cae2a90029
:1010ac00cba2a900c8e2a800c9a2a8008200a9008e
:1010bc008220a9008400a9008680a9009400a800c1
:1010cc009680a8000080fa00000006000200fa00da
:1010dc00004f78001e407800aaff0700323323002f
:1010ec003303240098fd070002002000a32f2400e6
:1010fc0017fe0700020020008314240034fd0700b3
:10110c000080fa00000006000200fa00004f780090
:10111c001e4078009bff070032332300330324006a
:10112c0089fd070002002c00a335240008fe0700ef
:10113c0002002c005328240025fd07000080fa0033
:10114c00000006000200fa00004f780011479800da
:10115c00d2fe0700e0cdb300a4fe07001e407800cd
:10116c00a2fe07001e409000a0fe0700d4fe070060
:10117c000080fa00000006000400fa0020479800e6
:10118c00c6fe0700e0cdb30098fe07002e4090008d
:10119c0096fe0700c1fe0700f0cdb30093fe0700da
:1011ac0010c0b300a2fe0700004f7800c4fe070079
:1011bc001e4078000080fa00000006000400fa00cf
:1011cc00204798002e409000ebff0700004f78005e
:1011dc002e4090000080fb00e20f50001200320005
:1011ec00e20f500005003c000000e0000a00320055
:1011fc00e10f50000a00320015003700e50f5000d7
:10120c000f003200e60f500010003200e40f5000c7
:10121c00080032000e0037001e74a1000c003700cd
:10122c001e74a1000a003700f1c3b3001ecf60008a
:10123c0007003700f1c3b3001ecf60000400370075
:10124c009e4078007fcf6000010037000000000056
:10125c001e4078000080fa00000006000400fa002e
:10126c000000eb00000f78008cfe070070c9b30083
:10127c005efe07000040eb006dfe07002047980063
:10128c0010c0b3006afe0700304798008cfe0700c0
:10129c002e4090000080fb006f0f60001e00780055
:1012ac00c600dd003e4090000080fb004200de00e6
:1012bc00004078000080fb00008f70001e0078005a
:1012cc008000eb0062fd070032332300330324005f
:1012dc009ffd070002002000034824001afd0700b0
:1012ec000001be00bbfc07000080fa0000000600f5
:1012fc000000fa00c102a900c882a900c082a9009e
:10130c00c122a900c702a900ce82a900c682a900e9
:10131c00c722a900c302a800ca82a8000080fa0054
:10132c00000006000600fa002047980021079800ec
:10133c002e4090000074a00020479800c322a90002
:10134c0080022000010020004e0007002e4090007b
:10135c00c6fe07000040eb00004f78000600370087
:10136c001e80fb00ae009000008040001040780012
:10137c00befe07001e4fe8001e407800e14f5000f3
:10138c00f7ff3600c322a8000080fa000000060018
:10139c000400fa00204798002e4090000074a10031
:1013ac002047980020c9b30020479800c322a90009
:1013bc008002200001002000320007002e40900027
:1013cc00aafe0700b4fe0700004f7800c322a80055
:1013dc001e4078000080fa00000006000000fa00b1
:1013ec0000c8bf000004e0000e003a00d0fd07006a
:1013fc00d3fd070010ff0700b2fe0700f2fd070047
:10140c0041fe07008bfe0700b9ff070010c0b300b8
:10141c0000e8b70000a821006100200019000700b7
:10142c0001003700000000000080fa0000000600f8
:10143c000400fa00e9ff07000d00070000a82100d6
:10144c00610020000f00070020c4b300d0ff07008c
:10145c000080fb00000f780020c1b300ccff070018
:10146c000080fb0010079800ca62a800ffff37003d
:10147c000000fa00c862a900d662a9000080fa0038
:04148c000000060056
:020000040000fa
:10149000f03fb1000180b10006003500ee03090005
:1014a00000000000403fb1000180b100fbff3d00a3
:1014b0001000b000203fb00002003500008009009d
:0814c00000000000000006001e
:020000040000fa
:1014c800000800000200000000000000000000000a
:020000040000fa
:020000040001f9
:0457f0001aff00009c
:020000040000fa
:020000040001f9
:0457f400fff40000be
:020000040000fa
:020000040001f9
:0457f8000ff80000a6
:020000040000fa
:020000040001f9
:0457fc007f3f0000eb
:00000001FF
